:020000040C00EE
:100000000088FE1F010200089902000899020008FA
:1000100099020008990200089902000800000000F7
:10002000000000000000000000000000990200082D
:1000300099020008000000009902000899020008D7
:100040009902000899020008990200089902000824
:100050009902000899020008990200089902000814
:1000600099020008000000000000000000000000ED
:100070009902000800000000990200089902000897
:1000800099020008990200089902000899020008E4
:1000900099020008990200089902000899020008D4
:1000A00099020008990200089902000899020008C4
:1000B00099020008990200089902000899020008B4
:1000C00099020008990200089902000899020008A4
:1000D0009902000899020008990200089902000894
:1000E0009902000899020008990200089902000884
:1000F0009902000899020008990200089902000874
:100100009902000899020008990200089902000863
:100110009902000899020008990200089902000853
:100120009902000899020008990200089902000843
:100130009902000899020008990200089902000833
:100140009902000899020008990200089902000823
:100150009902000899020008990200089902000813
:10016000000000000000000000000000000000008F
:1001700099020008990200089902000899020008F3
:1001800099020008990200089902000899020008E3
:1001900099020008990200089902000899020008D3
:1001A00099020008990200089902000899020008C3
:1001B00099020008990200089902000899020008B3
:1001C00099020008990200089902000899020008A3
:1001D0009902000899020008990200080000000036
:1001E0009902000899020008990200089902000883
:1001F00099020008000000009902000800000000B9
:10020000DFF874D01D4880471D4C1E4DAC4209DA02
:1002100021686268A368043BA2BFC858D050FAE7BF
:100220000C34F3E7184B194CA34208DA19685A68E2
:100230000020043AA4BF8850FBE70833F4E71448D1
:100240008047144880470000900A000C0088FE1F79
:1002500000000000900A000C0088FE1F0000000053
:100260000088FE1F000000000000002000000000C9
:1002700000000020000000000088FE1FC5020008EA
:1002800048020008600200086002000878020008C6
:10029000F5090008D5090008FEE7000080B485B024
:1002A00000AF78600023FB6003E000BFFB68013310
:1002B000FB60FA687B689A42F7D31437BD465DF855
:1002C000047B704798B500AF054A4FF000531446C1
:1002D0000FCB84E80F0000F005F800F03BF898BD64
:1002E000C4FF032080B483B000AF72B6164B174A28
:1002F0009A60BFF34F8F62B6134A134BD3F888301E
:1003000043F47003C2F888300F4A0F4B5B6923F047
:10031000080353610E4B03F5805314331B687B6055
:100320007B6823F00F037B607B6843F004037B60F2
:10033000074B03F5805314337A681A600C37BD46B7
:100340005DF8047B704700BF00ED00E0000000088E
:100350000010005880B500AF704B1B6803F001031C
:10036000002B0CD16D4A6D4B5B6843F00103536069
:1003700000BF6A4B1B6803F00103002BF9D0684BE8
:100380001B6803F40073002B09D0654A644B9B681B
:1003900043F40073936041F64C50FFF77FFF614ACE
:1003A000604B5B6843F40023536040F6C410FFF7D2
:1003B00075FF5C4A5B4B5B6823F4803323F00203D8
:1003C0005360594B5B6803F03003002B29D0564A29
:1003D000554B5B6823F4702323F03003536000F027
:1003E00023F90246514BA3FB02231B0D013B1B04C7
:1003F0004D494D4A526813434B604A4A494BDB68AA
:1004000023F00103D360474A464B5B6823F4003373
:10041000536000BF434B1B6803F46073B3F5607F08
:10042000F8D1404A3F4B5B6843F0010353603D4ABB
:100430003C4B5B6843F0100353603A4B3C4A9A6074
:10044000384A384B5B6843F040035360354A354BBC
:100450005B6823F010035360324A324B5B6843F40D
:100460008023536000BF2F4B1B6803F00403002B55
:10047000F9D02C4A2B4B5B6823F00103536000BF7B
:10048000284B1B6803F00103002BF9D1294B4FF0D7
:100490000112DA60274B00225A61264B00221A61B2
:1004A000244B00221A62234B00225A62214B032262
:1004B000DA61204B204A9A611E4B204A9A62194AFF
:1004C000184B5B6823F040035360164B1C4A9A603C
:1004D0004FF41660FFF7E2FE124B1A4A9A604FF48F
:1004E0006160FFF7DBFE0F4B174A9A604FF496509E
:1004F000FFF7D4FE0B4B154A9A6041F27070FFF77C
:10050000CDFE084B124A9A604FF4E150FFF7C6FE49
:10051000084B00225A6000F01DF880BD00420050D8
:100520000044005010470050004700506BCA5F6BFA
:10053000002F0B01004600500500010003002001C0
:10054000002F0501002F0301002F0201002F0101E0
:10055000002F000180B584B000AF2F4BDB6803F49F
:100560008033002B3ED02D4BDB6803F00103002BC2
:1005700002D02B4BFB6002E000F056F8F860274BEE
:100580001B6803F00403002B20D0244B9B6803F06E
:1005900070631B0E0133BB60204B9B6803F4FE436A
:1005A0001B0A01337B601D4B9B6803F4FE031B0C8D
:1005B00001333B60BB683A6802FB03F3FA68B2FBA5
:1005C000F3F37A6802FB03F3FB600DE0134B9B68C7
:1005D00003F07F0301333B60FA683B68B2FBF3F33F
:1005E000FB6001E00E4BFB600B4BDB68DBB20133C1
:1005F000FA68B2FBF3F3FB60074B1B6903F00103DE
:100600000133FA68B2FBF3F3FB60064AFB68136040
:100610001037BD4680BD00BF004600501047005057
:1006200000366E01C0FF032080B400AF024B1846B5
:10063000BD465DF8047B7047001BB70080B485B0F1
:1006400000AFF8600B467A60FB72FB7A9B08DBB266
:100650001846FB7A9B08DBB21A46FB68043253F853
:100660002220FB7A03F00303DB001946F8238B40BA
:10067000DB4302EA0301FB68021D43F82210FB681A
:100680005A6FFB7A5B00194603238B40DB431A4009
:10069000FB685A67FB683A4A934203D0FB68394AC1
:1006A00093420AD1FB681A6EFB7A012101FA03F327
:1006B000DB431A40FB681A6642E07B681B78DBB2BA
:1006C0005BB2002B3CDA7B685A68FB7A9A40FB6885
:1006D0005A60FB7ADB08DBB21846FB7ADB08DBB238
:1006E0001A46FB68103253F82220FB7A03F0070306
:1006F0009B00194607238B40DB4302EA0301FB689A
:1007000000F1100243F82210FB7ADB08DBB2184636
:10071000FB7ADB08DBB21A46FB68103253F8222062
:100720007B681B7A1946FB7A03F007039B0001FAEA
:1007300003F342EA0301FB6800F1100243F82210C0
:10074000FB7A9B08DBB21846FB7A9B08DBB21A46A1
:10075000FB68043253F822207B681B781946FB7A29
:1007600003F00303DB0001FA03F342EA0301FB6831
:10077000021D43F822101437BD465DF8047B704714
:10078000008E0248008F024880B483B000AF7860CA
:100790000B46FB701346BB707B685A6FFB785B009F
:1007A000194603238B40DB431A407B685A677B68FA
:1007B0005A6FBB78F97849008B401A437B685A67B7
:1007C0000C37BD465DF8047B704700BF80B400AFB6
:1007D000BD465DF8047B704780B582B000AF78609D
:1007E0007B6819687B681A7C7B680433084611466D
:1007F0001A46FFF723FF7B6819687B681A7C7B68C1
:100800005B7C084611461A46FFF7BEFF00231846D8
:100810000837BD4680BD00BF80B582B000AF002361
:10082000FB71FB79002B04D11048FFF7D5FF03467D
:10083000FB71FB79002B04D10D48FFF7CDFF034678
:10084000FB71FB79002B04D10A48FFF7C5FF034673
:10085000FB71FB79002B04D10748FFF7BDFF03466E
:10086000FB71FB7918460837BD4680BD400A000879
:10087000540A0008680A00087C0A000880B483B0A3
:1008800000AF78600B46FB70FB7801229A407B68D2
:100890005A600C37BD465DF8047B704780B483B066
:1008A00000AF78600B46FB70FB784FF480329A40C3
:1008B0007B685A600C37BD465DF8047B704700BF0B
:1008C00080B582B000AF78607B681A687B681B7C5B
:1008D00010461946FFF7D2FF0837BD4680BD00BF5E
:1008E00080B582B000AF78607B681A687B681B7C3B
:1008F00010461946FFF7D2FF0837BD4680BD00BF3E
:1009000080B483B000AF01233B6000237B6004E030
:1009100000233B607B6801337B607B684FF6FE728F
:100920009342F5DD0C37BD465DF8047B704700BF90
:1009300080B584B000AF78602248FFF7D1FF22482D
:10094000FFF7CEFF2148FFF7CBFF2148FFF7C8FF95
:100950000023FB600023BB600123FB602BE000232E
:10096000BB6022E0FFF7CCFF1848FFF7B9FF15483E
:10097000FFF7A6FFFFF7C4FF1548FFF7B1FF1248C6
:10098000FFF79EFFFFF7BCFF0E48FFF7A9FF0F48D8
:10099000FFF796FFFFF7B4FF0B48FFF7A1FF0C48E6
:1009A000FFF78EFFBB680133BB60BB68F92BD9D959
:1009B000FB680133FB60FA687B689A42CFD9103735
:1009C000BD4680BD400A0008540A0008680A0008B5
:1009D0007C0A000880B582B000AFFFF71DFF034618
:1009E000FB71FB79002B00D0FEE70A20FFF7A0FF88
:1009F000FEE700BF70B50E4B0E4CE41AA4100025A4
:100A00001E46A54204D056F8253098470135F8E730
:100A1000FFF7DCFE084C094BE41AA41000251E4623
:100A2000A54204D056F8253098470135F8E770BD47
:100A30000088FE1F0088FE1F0088FE1F0088FE1F22
:100A4000008102488000000000000100000000005A
:100A50000900000000820248800000000000010040
:100A6000000000000B00000000820248800000002F
:100A700000000100000000000C000000008102489E
:100A800080000000010000000000000001000000E4
:0400000508000201EC
:00000001FF
